:1000000002000375816F7590FF7580FF75A000C2B7
:10001000B0C2B1C2B7753032753100753200753378
:10002000FF7534FF5116511B512811F63156606788
:10003000F532E532B42B07119C11F6020090E5323F
:10004000B42D0711A411F6020090E532B4430B75EC
:1000500033FF7534FF11F6020090E532B43D07110D
:10006000AC11F6020090E532C394304023E532C370
:10007000943A501CE533B4FF09E532F53311F6022A
:100080000090E534B4FF09E532F53411F602009032
:10009000315670FC02009711CF02002C753101D24D
:1000A000B0C2B122753102C2B0D2B122E533B4FF81
:1000B0000122E534B4FF0122E533540F75F00AA4A0
:1000C000FCE534540F2CF5307533FF7534FF22E511
:1000D000317003C2B7227E647464C39EFDEDC39584
:1000E000304007C2B711F1DEEF22D2B711F1DEE8DE
:1000F000227F3CDFFE225128900266514EE531B44A
:10010000010790026B514E800FB4020790026E51AE
:100110004E8005900272514E512F900277514EE55C
:1001200033B4FF02801BE5335141E534B4FF097459
:100130005F51417425514122E534514174255141AB
:1001400022E53075F00A8424305141E5F024305125
:100150004174255141227590FE31F06003318422B3
:100160007590FD31F06003319F227590FB31F06096
:100170000331BA227590F731F0600331D522740053
:100180007590FF22B4010474378010B402047438EF
:100190008009B4030474398002742F7590FF22B46F
:1001A000010474348010B4020474358009B403046B
:1001B00074368002742A7590FF22B4010474318071
:1001C00010B4020474328009B403047433800274DE
:1001D0002D7590FF22B4010474438010B40204749E
:1001E000308009B40304743D8002742B7590FF22A3
:1001F000510D20940374012220950374022220964D
:10020000037403222097037404227400227E057F66
:10021000FADFFEDEFA22515D515D227438513474EA
:100220000C5134740651342274015134515D2274DE
:10023000C0513422C280F5A0D2825158C282515896
:1002400022D280F5A0D2825158C282515822E49322
:1002500060055141A380F7227F50DFFE227EC87FD8
:10026000FADFFEDEFA224449523A00435700434384
:0C027000570053544F50005350443A00C4
:00000001FF
